{
  "address": "0x65CF53A4285Ad76BF8dA39B29Fdf880A756B6aC2",
  "abi": [
    {
      "inputs": [
        {
          "internalType": "contract IEntryPoint",
          "name": "_entryPoint",
          "type": "address"
        }
      ],
      "stateMutability": "nonpayable",
      "type": "constructor"
    },
    {
      "anonymous": false,
      "inputs": [
        {
          "indexed": true,
          "internalType": "address",
          "name": "account",
          "type": "address"
        },
        {
          "indexed": true,
          "internalType": "address",
          "name": "owner",
          "type": "address"
        },
        {
          "indexed": false,
          "internalType": "uint256",
          "name": "index",
          "type": "uint256"
        }
      ],
      "name": "AccountCreated",
      "type": "event"
    },
    {
      "inputs": [
        {
          "internalType": "address",
          "name": "_owner",
          "type": "address"
        },
        {
          "internalType": "uint256",
          "name": "_index",
          "type": "uint256"
        }
      ],
      "name": "createAccount",
      "outputs": [
        {
          "internalType": "contract EIP1967Proxy",
          "name": "proxy",
          "type": "address"
        }
      ],
      "stateMutability": "nonpayable",
      "type": "function"
    },
    {
      "inputs": [
        {
          "internalType": "address",
          "name": "_owner",
          "type": "address"
        },
        {
          "internalType": "uint256",
          "name": "_index",
          "type": "uint256"
        }
      ],
      "name": "getAccountAddress",
      "outputs": [
        {
          "internalType": "address",
          "name": "",
          "type": "address"
        }
      ],
      "stateMutability": "view",
      "type": "function"
    },
    {
      "inputs": [],
      "name": "kernelTemplate",
      "outputs": [
        {
          "internalType": "contract Kernel",
          "name": "",
          "type": "address"
        }
      ],
      "stateMutability": "view",
      "type": "function"
    }
  ],
  "transactionHash": "0xba0356ee2ae68b6e168e074f9abb0b36324043c3ce1e56cb40b2c2ee6e015382",
  "args": [
    "0x0576a174D229E3cFA37253523E645A78A0C91B57"
  ],
  "numDeployments": 1,
  "solcInputHash": "02f95185e959f7a413463ec7d49142fc",
  "bytecode": "0x60a06040523480156200001157600080fd5b50604051620041ae380380620041ae833981810160405281019062000037919062000136565b806040516200004690620000aa565b620000529190620001d3565b604051809103906000f0801580156200006f573d6000803e3d6000fd5b5073ffffffffffffffffffffffffffffffffffffffff1660808173ffffffffffffffffffffffffffffffffffffffff168152505050620001f0565b613068806200114683390190565b600080fd5b600073ffffffffffffffffffffffffffffffffffffffff82169050919050565b6000620000ea82620000bd565b9050919050565b6000620000fe82620000dd565b9050919050565b6200011081620000f1565b81146200011c57600080fd5b50565b600081519050620001308162000105565b92915050565b6000602082840312156200014f576200014e620000b8565b5b60006200015f848285016200011f565b91505092915050565b6000819050919050565b6000620001936200018d6200018784620000bd565b62000168565b620000bd565b9050919050565b6000620001a78262000172565b9050919050565b6000620001bb826200019a565b9050919050565b620001cd81620001ae565b82525050565b6000602082019050620001ea6000830184620001c2565b92915050565b608051610f26620002206000396000818160db0152818161015a0152818161028a01526103830152610f266000f3fe60806040523480156200001157600080fd5b5060043610620000465760003560e01c8063037637aa146200004b5780630d253d76146200006d5780635fbfb9cf14620000a3575b600080fd5b62000055620000d9565b604051620000649190620005a4565b60405180910390f35b6200008b600480360381019062000085919062000646565b620000fd565b6040516200009a91906200069e565b60405180910390f35b620000c16004803603810190620000bb919062000646565b6200022b565b604051620000d09190620006e0565b60405180910390f35b7f000000000000000000000000000000000000000000000000000000000000000081565b60008083836040516020016200011592919062000772565b60405160208183030381529060405280519060200120905062000222816040518060200162000144906200050b565b6020820181038252601f19601f820116604052507f0000000000000000000000000000000000000000000000000000000000000000876040516024016200018c91906200069e565b60405160208183030381529060405263c4d66de860e01b6020820180517bffffffffffffffffffffffffffffffffffffffffffffffffffffffff8381831617835250505050604051602001620001e49291906200083c565b60405160208183030381529060405260405160200162000206929190620008b2565b60405160208183030381529060405280519060200120620004c9565b91505092915050565b60008083836040516020016200024392919062000772565b604051602081830303815290604052805190602001209050600062000352826040518060200162000274906200050b565b6020820181038252601f19601f820116604052507f000000000000000000000000000000000000000000000000000000000000000088604051602401620002bc91906200069e565b60405160208183030381529060405263c4d66de860e01b6020820180517bffffffffffffffffffffffffffffffffffffffffffffffffffffffff8381831617835250505050604051602001620003149291906200083c565b60405160208183030381529060405260405160200162000336929190620008b2565b60405160208183030381529060405280519060200120620004c9565b905060008173ffffffffffffffffffffffffffffffffffffffff163b111562000380578092505050620004c3565b817f000000000000000000000000000000000000000000000000000000000000000063c4d66de860e01b87604051602401620003bd91906200069e565b604051602081830303815290604052907bffffffffffffffffffffffffffffffffffffffffffffffffffffffff19166020820180517bffffffffffffffffffffffffffffffffffffffffffffffffffffffff838183161783525050505060405162000428906200050b565b620004359291906200083c565b8190604051809103906000f590508015801562000456573d6000803e3d6000fd5b5092508473ffffffffffffffffffffffffffffffffffffffff168373ffffffffffffffffffffffffffffffffffffffff167f33310a89c32d8cc00057ad6ef6274d2f8fe22389a992cf89983e09fc84f6cfff86604051620004b89190620008eb565b60405180910390a350505b92915050565b6000620004d8838330620004e0565b905092915050565b6000604051836040820152846020820152828152600b810160ff815360558120925050509392505050565b6105e8806200090983390190565b600073ffffffffffffffffffffffffffffffffffffffff82169050919050565b6000819050919050565b6000620005646200055e620005588462000519565b62000539565b62000519565b9050919050565b6000620005788262000543565b9050919050565b60006200058c826200056b565b9050919050565b6200059e816200057f565b82525050565b6000602082019050620005bb600083018462000593565b92915050565b600080fd5b6000620005d38262000519565b9050919050565b620005e581620005c6565b8114620005f157600080fd5b50565b6000813590506200060581620005da565b92915050565b6000819050919050565b62000620816200060b565b81146200062c57600080fd5b50565b600081359050620006408162000615565b92915050565b6000806040838503121562000660576200065f620005c1565b5b60006200067085828601620005f4565b925050602062000683858286016200062f565b9150509250929050565b6200069881620005c6565b82525050565b6000602082019050620006b560008301846200068d565b92915050565b6000620006c8826200056b565b9050919050565b620006da81620006bb565b82525050565b6000602082019050620006f76000830184620006cf565b92915050565b60008160601b9050919050565b60006200071782620006fd565b9050919050565b60006200072b826200070a565b9050919050565b620007476200074182620005c6565b6200071e565b82525050565b6000819050919050565b6200076c62000766826200060b565b6200074d565b82525050565b600062000780828562000732565b60148201915062000792828462000757565b6020820191508190509392505050565b600081519050919050565b600082825260208201905092915050565b60005b83811015620007de578082015181840152602081019050620007c1565b60008484015250505050565b6000601f19601f8301169050919050565b60006200080882620007a2565b620008148185620007ad565b935062000826818560208601620007be565b6200083181620007ea565b840191505092915050565b60006040820190506200085360008301856200068d565b8181036020830152620008678184620007fb565b90509392505050565b600081905092915050565b60006200088882620007a2565b62000894818562000870565b9350620008a6818560208601620007be565b80840191505092915050565b6000620008c082856200087b565b9150620008ce82846200087b565b91508190509392505050565b620008e5816200060b565b82525050565b6000602082019050620009026000830184620008da565b9291505056fe60806040526040516105e83803806105e883398181016040528101906100259190610351565b600073ffffffffffffffffffffffffffffffffffffffff168273ffffffffffffffffffffffffffffffffffffffff1603610094576040517f08c379a000000000000000000000000000000000000000000000000000000000815260040161008b90610430565b60405180910390fd5b60007f360894a13ba1a3210667c828492db98dca3e2076cc3735a920a3ca505d382bbc60001b90508281556000825111156101765760008373ffffffffffffffffffffffffffffffffffffffff16836040516100f09190610497565b600060405180830381855af49150503d806000811461012b576040519150601f19603f3d011682016040523d82523d6000602084013e610130565b606091505b5050905080610174576040517f08c379a000000000000000000000000000000000000000000000000000000000815260040161016b90610520565b60405180910390fd5b505b505050610540565b6000604051905090565b600080fd5b600080fd5b600073ffffffffffffffffffffffffffffffffffffffff82169050919050565b60006101bd82610192565b9050919050565b6101cd816101b2565b81146101d857600080fd5b50565b6000815190506101ea816101c4565b92915050565b600080fd5b600080fd5b6000601f19601f8301169050919050565b7f4e487b7100000000000000000000000000000000000000000000000000000000600052604160045260246000fd5b610243826101fa565b810181811067ffffffffffffffff821117156102625761026161020b565b5b80604052505050565b600061027561017e565b9050610281828261023a565b919050565b600067ffffffffffffffff8211156102a1576102a061020b565b5b6102aa826101fa565b9050602081019050919050565b60005b838110156102d55780820151818401526020810190506102ba565b60008484015250505050565b60006102f46102ef84610286565b61026b565b9050828152602081018484840111156103105761030f6101f5565b5b61031b8482856102b7565b509392505050565b600082601f830112610338576103376101f0565b5b81516103488482602086016102e1565b91505092915050565b6000806040838503121561036857610367610188565b5b6000610376858286016101db565b925050602083015167ffffffffffffffff8111156103975761039661018d565b5b6103a385828601610323565b9150509250929050565b600082825260208201905092915050565b7f4549503139363750726f78793a20696d706c656d656e746174696f6e2069732060008201527f746865207a65726f206164647265737300000000000000000000000000000000602082015250565b600061041a6030836103ad565b9150610425826103be565b604082019050919050565b600060208201905081810360008301526104498161040d565b9050919050565b600081519050919050565b600081905092915050565b600061047182610450565b61047b818561045b565b935061048b8185602086016102b7565b80840191505092915050565b60006104a38284610466565b915081905092915050565b7f4549503139363750726f78793a20636f6e7374727563746f722063616c6c206660008201527f61696c6564000000000000000000000000000000000000000000000000000000602082015250565b600061050a6025836103ad565b9150610515826104ae565b604082019050919050565b60006020820190508181036000830152610539816104fd565b9050919050565b609a8061054e6000396000f3fe60806040526000600c6033565b90503660008037600080366000845af43d6000803e8060008114602e573d6000f35b3d6000fd5b6000807f360894a13ba1a3210667c828492db98dca3e2076cc3735a920a3ca505d382bbc60001b905080549150509056fea2646970667358221220388bcbb27d5b065c1b785d1b94666d7f301b338574b92c716035a8fc03df3d4064736f6c63430008120033a264697066735822122026f61898c297d360c965ece9eba87ae032ad0f5cad5c2197b215a3e79dfbf11f64736f6c634300081200336101606040523480156200001257600080fd5b5060405162003068380380620030688339818101604052810190620000389190620002e2565b806040518060400160405280600681526020017f4b65726e656c00000000000000000000000000000000000000000000000000008152506040518060400160405280600581526020017f302e302e3100000000000000000000000000000000000000000000000000000081525060008280519060200120905060008280519060200120905060007f8b73c3c69bb8fe3d512ecc4cf759cc79239f7b179b0ffacaa9a75d522b39400f90508260e081815250508161010081815250504660a081815250506200010e818484620001e760201b60201c565b608081815250503073ffffffffffffffffffffffffffffffffffffffff1660c08173ffffffffffffffffffffffffffffffffffffffff168152505080610120818152505050505050508073ffffffffffffffffffffffffffffffffffffffff166101408173ffffffffffffffffffffffffffffffffffffffff168152505060016200019e6200022360201b60201c565b60000160006101000a81548173ffffffffffffffffffffffffffffffffffffffff021916908373ffffffffffffffffffffffffffffffffffffffff160217905550505062000422565b60008383834630604051602001620002049594939291906200035b565b6040516020818303038152906040528051906020012090509392505050565b60008060017f439ffe7df606b78489639bc0b827913bd09e1246fa6802968a5b3694c53e0dd960001c620002589190620003e7565b60001b90508091505090565b600080fd5b600073ffffffffffffffffffffffffffffffffffffffff82169050919050565b6000620002968262000269565b9050919050565b6000620002aa8262000289565b9050919050565b620002bc816200029d565b8114620002c857600080fd5b50565b600081519050620002dc81620002b1565b92915050565b600060208284031215620002fb57620002fa62000264565b5b60006200030b84828501620002cb565b91505092915050565b6000819050919050565b620003298162000314565b82525050565b6000819050919050565b62000344816200032f565b82525050565b620003558162000289565b82525050565b600060a0820190506200037260008301886200031e565b6200038160208301876200031e565b6200039060408301866200031e565b6200039f606083018562000339565b620003ae60808301846200034a565b9695505050505050565b7f4e487b7100000000000000000000000000000000000000000000000000000000600052601160045260246000fd5b6000620003f4826200032f565b915062000401836200032f565b92508282039050818111156200041c576200041b620003b8565b5b92915050565b60805160a05160c05160e051610100516101205161014051612bd662000492600039600081816104fe0152818161066101528181610acd0152610cb4015260006114fb0152600061153d0152600061151c01526000611451015260006114a7015260006114d00152612bd66000f3fe6080604052600436106100e15760003560e01c8063940d3c601161007f578063c4d66de811610059578063c4d66de8146102df578063d087d28814610308578063f23a6e6114610333578063f333df5514610370576100e8565b8063940d3c601461024e578063b0d691fe14610277578063bc197c81146102a2576100e8565b80633659cfe6116100bb5780633659cfe6146101925780633a871cdd146101bb57806354fd4d50146101f8578063893d20e814610223576100e8565b806306fdde03146100ed578063150b7a02146101185780631626ba7e14610155576100e8565b366100e857005b600080fd5b3480156100f957600080fd5b50610102610399565b60405161010f9190611746565b60405180910390f35b34801561012457600080fd5b5061013f600480360381019061013a9190611875565b6103d2565b60405161014c9190611938565b60405180910390f35b34801561016157600080fd5b5061017c60048036038101906101779190611ab9565b6103e7565b6040516101899190611938565b60405180910390f35b34801561019e57600080fd5b506101b960048036038101906101b49190611b15565b6104fc565b005b3480156101c757600080fd5b506101e260048036038101906101dd9190611b67565b61065d565b6040516101ef9190611be5565b60405180910390f35b34801561020457600080fd5b5061020d610a5f565b60405161021a9190611746565b60405180910390f35b34801561022f57600080fd5b50610238610a98565b6040516102459190611c0f565b60405180910390f35b34801561025a57600080fd5b5061027560048036038101906102709190611c4f565b610acb565b005b34801561028357600080fd5b5061028c610cb2565b6040516102999190611d36565b60405180910390f35b3480156102ae57600080fd5b506102c960048036038101906102c49190611da7565b610cd6565b6040516102d69190611938565b60405180910390f35b3480156102eb57600080fd5b5061030660048036038101906103019190611b15565b610cee565b005b34801561031457600080fd5b5061031d610dd4565b60405161032a9190611be5565b60405180910390f35b34801561033f57600080fd5b5061035a60048036038101906103559190611e83565b610de7565b6040516103679190611938565b60405180910390f35b34801561037c57600080fd5b5061039760048036038101906103929190611f1d565b610dfd565b005b6040518060400160405280600681526020017f4b65726e656c000000000000000000000000000000000000000000000000000081525081565b600063150b7a0260e01b905095945050505050565b6000806103f2610e9d565b90506103fe8484610edc565b73ffffffffffffffffffffffffffffffffffffffff168160000160009054906101000a900473ffffffffffffffffffffffffffffffffffffffff1673ffffffffffffffffffffffffffffffffffffffff160361046457631626ba7e60e01b9150506104f6565b600061046f85610f03565b9050600061047d8286610edc565b90508073ffffffffffffffffffffffffffffffffffffffff168360000160009054906101000a900473ffffffffffffffffffffffffffffffffffffffff1673ffffffffffffffffffffffffffffffffffffffff16036104e857631626ba7e60e01b93505050506104f6565b63ffffffff60e01b93505050505b92915050565b7f000000000000000000000000000000000000000000000000000000000000000073ffffffffffffffffffffffffffffffffffffffff163373ffffffffffffffffffffffffffffffffffffffff1614806105ac5750610559610e9d565b60000160009054906101000a900473ffffffffffffffffffffffffffffffffffffffff1673ffffffffffffffffffffffffffffffffffffffff163373ffffffffffffffffffffffffffffffffffffffff16145b6105eb576040517f08c379a00000000000000000000000000000000000000000000000000000000081526004016105e290611fef565b60405180910390fd5b60007f360894a13ba1a3210667c828492db98dca3e2076cc3735a920a3ca505d382bbc60001b90508181558173ffffffffffffffffffffffffffffffffffffffff167fbc7cd75a20ee27fd9adebab32041f755214dbc6bffa90cc0225b39da2e5c2d3b60405160405180910390a25050565b60007f000000000000000000000000000000000000000000000000000000000000000073ffffffffffffffffffffffffffffffffffffffff163373ffffffffffffffffffffffffffffffffffffffff16146106ed576040517f08c379a00000000000000000000000000000000000000000000000000000000081526004016106e49061205b565b60405180910390fd5b604184806101400190610700919061208a565b905003610718576107118484610f33565b90506109dc565b60618480610140019061072b919061208a565b905011156109a957600084806101400190610746919061208a565b600090601492610758939291906120f7565b906107639190612176565b60601c905060008580610140019061077b919061208a565b601490601a9261078d939291906120f7565b906107989190612201565b60d01c90506000868061014001906107b0919061208a565b601a906020926107c2939291906120f7565b906107cd9190612201565b60d01c90506000878061014001906107e5919061208a565b6020906061926107f7939291906120f7565b8080601f016020809104026020016040519081016040528093929190818152602001838380828437600081840152601f19601f82011690508083019250505050505050905060008880610140019061084f919061208a565b6061908092610860939291906120f7565b81019061086d9190612260565b50905060006108d07f4584533bad8bbd8aa77024a548a56acb8d2807847381ce1b3364745ca396b2e387878786805190602001206040516020016108b5959493929190612308565b60405160208183030381529060405280519060200120611129565b905060006108de8285610edc565b90508073ffffffffffffffffffffffffffffffffffffffff166108ff610e9d565b60000160009054906101000a900473ffffffffffffffffffffffffffffffffffffffff1673ffffffffffffffffffffffffffffffffffffffff161461094e576001975050505050505050610a58565b600061095c888d8d8d611143565b90506000818060200190518101906109749190612393565b90508061098d5760019950505050505050505050610a58565b610999811589896111ef565b99505050505050505050506109db565b6040517f4be6321b00000000000000000000000000000000000000000000000000000000815260040160405180910390fd5b5b6000821115610a575760003373ffffffffffffffffffffffffffffffffffffffff1683604051610a0b906123f1565b60006040518083038185875af1925050503d8060008114610a48576040519150601f19603f3d011682016040523d82523d6000602084013e610a4d565b606091505b5050905050610a58565b5b9392505050565b6040518060400160405280600581526020017f302e302e3100000000000000000000000000000000000000000000000000000081525081565b6000610aa2610e9d565b60000160009054906101000a900473ffffffffffffffffffffffffffffffffffffffff16905090565b7f000000000000000000000000000000000000000000000000000000000000000073ffffffffffffffffffffffffffffffffffffffff163373ffffffffffffffffffffffffffffffffffffffff161480610b7b5750610b28610e9d565b60000160009054906101000a900473ffffffffffffffffffffffffffffffffffffffff1673ffffffffffffffffffffffffffffffffffffffff163373ffffffffffffffffffffffffffffffffffffffff16145b610bba576040517f08c379a0000000000000000000000000000000000000000000000000000000008152600401610bb190611fef565b60405180910390fd5b60006060600180811115610bd157610bd0612406565b5b836001811115610be457610be3612406565b5b03610c4457610c378786868080601f016020809104026020016040519081016040528093929190818152602001838380828437600081840152601f19601f82011690508083019250505050505050611228565b8092508193505050610c9c565b610c93878787878080601f016020809104026020016040519081016040528093929190818152602001838380828437600081840152601f19601f8201169050808301925050505050505061125e565b80925081935050505b81610ca957805160208201fd5b50505050505050565b7f000000000000000000000000000000000000000000000000000000000000000081565b600063bc197c8160e01b905098975050505050505050565b6000610cf8610e9d565b9050600073ffffffffffffffffffffffffffffffffffffffff168160000160009054906101000a900473ffffffffffffffffffffffffffffffffffffffff1673ffffffffffffffffffffffffffffffffffffffff1614610d8d576040517f08c379a0000000000000000000000000000000000000000000000000000000008152600401610d8490612481565b60405180910390fd5b818160000160006101000a81548173ffffffffffffffffffffffffffffffffffffffff021916908373ffffffffffffffffffffffffffffffffffffffff1602179055505050565b6000610dde610e9d565b60010154905090565b600063f23a6e6160e01b90509695505050505050565b600080610e4e8585858080601f016020809104026020016040519081016040528093929190818152602001838380828437600081840152601f19601f82011690508083019250505050505050611228565b915091508115610e9557806040517fa52b2169000000000000000000000000000000000000000000000000000000008152600401610e8c91906124f6565b60405180910390fd5b805160208201fd5b60008060017f439ffe7df606b78489639bc0b827913bd09e1246fa6802968a5b3694c53e0dd960001c610ed09190612547565b60001b90508091505090565b6000806000610eeb8585611296565b91509150610ef8816112e7565b819250505092915050565b600081604051602001610f1691906125f3565b604051602081830303815290604052805190602001209050919050565b600080610f3e610e9d565b9050610f9d8385806101400190610f55919061208a565b8080601f016020809104026020016040519081016040528093929190818152602001838380828437600081840152601f19601f82011690508083019250505050505050610edc565b73ffffffffffffffffffffffffffffffffffffffff168160000160009054906101000a900473ffffffffffffffffffffffffffffffffffffffff1673ffffffffffffffffffffffffffffffffffffffff1603610ff95750611123565b600061100484610f03565b90506000611065828780610140019061101d919061208a565b8080601f016020809104026020016040519081016040528093929190818152602001838380828437600081840152601f19601f82011690508083019250505050505050610edc565b90508073ffffffffffffffffffffffffffffffffffffffff168360000160009054906101000a900473ffffffffffffffffffffffffffffffffffffffff1673ffffffffffffffffffffffffffffffffffffffff16146110ca5760019350505050611123565b85602001358360010160008154809291906110e490612619565b919050551461111f576040517f756688fe00000000000000000000000000000000000000000000000000000000815260040160405180910390fd5b5050505b92915050565b600061113c61113661144d565b83611567565b9050919050565b60606000639e2045ce60e01b858585604051602401611164939291906128c1565b604051602081830303815290604052907bffffffffffffffffffffffffffffffffffffffffffffffffffffffff19166020820180517bffffffffffffffffffffffffffffffffffffffffffffffffffffffff838183161783525050505090506000806111d08884611228565b91509150816111e157805160208201fd5b809350505050949350505050565b600060d08265ffffffffffff16901b60a08465ffffffffffff16901b8561121757600061121a565b60015b60ff16171790509392505050565b60006060600080845160208601875af491503d604051602082018101604052818152816000602083013e80925050509250929050565b6000606060008084516020860187895af191503d604051602082018101604052818152816000602083013e8092505050935093915050565b60008060418351036112d75760008060006020860151925060408601519150606086015160001a90506112cb8782858561159a565b945094505050506112e0565b60006002915091505b9250929050565b600060048111156112fb576112fa612406565b5b81600481111561130e5761130d612406565b5b031561144a576001600481111561132857611327612406565b5b81600481111561133b5761133a612406565b5b0361137b576040517f08c379a00000000000000000000000000000000000000000000000000000000081526004016113729061294b565b60405180910390fd5b6002600481111561138f5761138e612406565b5b8160048111156113a2576113a1612406565b5b036113e2576040517f08c379a00000000000000000000000000000000000000000000000000000000081526004016113d9906129b7565b60405180910390fd5b600360048111156113f6576113f5612406565b5b81600481111561140957611408612406565b5b03611449576040517f08c379a000000000000000000000000000000000000000000000000000000000815260040161144090612a49565b60405180910390fd5b5b50565b60007f000000000000000000000000000000000000000000000000000000000000000073ffffffffffffffffffffffffffffffffffffffff163073ffffffffffffffffffffffffffffffffffffffff161480156114c957507f000000000000000000000000000000000000000000000000000000000000000046145b156114f6577f00000000000000000000000000000000000000000000000000000000000000009050611564565b6115617f00000000000000000000000000000000000000000000000000000000000000007f00000000000000000000000000000000000000000000000000000000000000007f000000000000000000000000000000000000000000000000000000000000000061167c565b90505b90565b6000828260405160200161157c929190612ab5565b60405160208183030381529060405280519060200120905092915050565b6000807f7fffffffffffffffffffffffffffffff5d576e7357a4501ddfe92f46681b20a08360001c11156115d5576000600391509150611673565b6000600187878787604051600081526020016040526040516115fa9493929190612b08565b6020604051602081039080840390855afa15801561161c573d6000803e3d6000fd5b505050602060405103519050600073ffffffffffffffffffffffffffffffffffffffff168173ffffffffffffffffffffffffffffffffffffffff160361166a57600060019250925050611673565b80600092509250505b94509492505050565b60008383834630604051602001611697959493929190612b4d565b6040516020818303038152906040528051906020012090509392505050565b600081519050919050565b600082825260208201905092915050565b60005b838110156116f05780820151818401526020810190506116d5565b60008484015250505050565b6000601f19601f8301169050919050565b6000611718826116b6565b61172281856116c1565b93506117328185602086016116d2565b61173b816116fc565b840191505092915050565b60006020820190508181036000830152611760818461170d565b905092915050565b6000604051905090565b600080fd5b600080fd5b600073ffffffffffffffffffffffffffffffffffffffff82169050919050565b60006117a78261177c565b9050919050565b6117b78161179c565b81146117c257600080fd5b50565b6000813590506117d4816117ae565b92915050565b6000819050919050565b6117ed816117da565b81146117f857600080fd5b50565b60008135905061180a816117e4565b92915050565b600080fd5b600080fd5b600080fd5b60008083601f84011261183557611834611810565b5b8235905067ffffffffffffffff81111561185257611851611815565b5b60208301915083600182028301111561186e5761186d61181a565b5b9250929050565b60008060008060006080868803121561189157611890611772565b5b600061189f888289016117c5565b95505060206118b0888289016117c5565b94505060406118c1888289016117fb565b935050606086013567ffffffffffffffff8111156118e2576118e1611777565b5b6118ee8882890161181f565b92509250509295509295909350565b60007fffffffff0000000000000000000000000000000000000000000000000000000082169050919050565b611932816118fd565b82525050565b600060208201905061194d6000830184611929565b92915050565b6000819050919050565b61196681611953565b811461197157600080fd5b50565b6000813590506119838161195d565b92915050565b600080fd5b7f4e487b7100000000000000000000000000000000000000000000000000000000600052604160045260246000fd5b6119c6826116fc565b810181811067ffffffffffffffff821117156119e5576119e461198e565b5b80604052505050565b60006119f8611768565b9050611a0482826119bd565b919050565b600067ffffffffffffffff821115611a2457611a2361198e565b5b611a2d826116fc565b9050602081019050919050565b82818337600083830152505050565b6000611a5c611a5784611a09565b6119ee565b905082815260208101848484011115611a7857611a77611989565b5b611a83848285611a3a565b509392505050565b600082601f830112611aa057611a9f611810565b5b8135611ab0848260208601611a49565b91505092915050565b60008060408385031215611ad057611acf611772565b5b6000611ade85828601611974565b925050602083013567ffffffffffffffff811115611aff57611afe611777565b5b611b0b85828601611a8b565b9150509250929050565b600060208284031215611b2b57611b2a611772565b5b6000611b39848285016117c5565b91505092915050565b600080fd5b60006101608284031215611b5e57611b5d611b42565b5b81905092915050565b600080600060608486031215611b8057611b7f611772565b5b600084013567ffffffffffffffff811115611b9e57611b9d611777565b5b611baa86828701611b47565b9350506020611bbb86828701611974565b9250506040611bcc868287016117fb565b9150509250925092565b611bdf816117da565b82525050565b6000602082019050611bfa6000830184611bd6565b92915050565b611c098161179c565b82525050565b6000602082019050611c246000830184611c00565b92915050565b60028110611c3757600080fd5b50565b600081359050611c4981611c2a565b92915050565b600080600080600060808688031215611c6b57611c6a611772565b5b6000611c79888289016117c5565b9550506020611c8a888289016117fb565b945050604086013567ffffffffffffffff811115611cab57611caa611777565b5b611cb78882890161181f565b93509350506060611cca88828901611c3a565b9150509295509295909350565b6000819050919050565b6000611cfc611cf7611cf28461177c565b611cd7565b61177c565b9050919050565b6000611d0e82611ce1565b9050919050565b6000611d2082611d03565b9050919050565b611d3081611d15565b82525050565b6000602082019050611d4b6000830184611d27565b92915050565b60008083601f840112611d6757611d66611810565b5b8235905067ffffffffffffffff811115611d8457611d83611815565b5b602083019150836020820283011115611da057611d9f61181a565b5b9250929050565b60008060008060008060008060a0898b031215611dc757611dc6611772565b5b6000611dd58b828c016117c5565b9850506020611de68b828c016117c5565b975050604089013567ffffffffffffffff811115611e0757611e06611777565b5b611e138b828c01611d51565b9650965050606089013567ffffffffffffffff811115611e3657611e35611777565b5b611e428b828c01611d51565b9450945050608089013567ffffffffffffffff811115611e6557611e64611777565b5b611e718b828c0161181f565b92509250509295985092959890939650565b60008060008060008060a08789031215611ea057611e9f611772565b5b6000611eae89828a016117c5565b9650506020611ebf89828a016117c5565b9550506040611ed089828a016117fb565b9450506060611ee189828a016117fb565b935050608087013567ffffffffffffffff811115611f0257611f01611777565b5b611f0e89828a0161181f565b92509250509295509295509295565b600080600060408486031215611f3657611f35611772565b5b6000611f44868287016117c5565b935050602084013567ffffffffffffffff811115611f6557611f64611777565b5b611f718682870161181f565b92509250509250925092565b7f6163636f756e743a206e6f742066726f6d20656e747279706f696e74206f722060008201527f6f776e6572000000000000000000000000000000000000000000000000000000602082015250565b6000611fd96025836116c1565b9150611fe482611f7d565b604082019050919050565b6000602082019050818103600083015261200881611fcc565b9050919050565b7f6163636f756e743a206e6f742066726f6d20656e747279506f696e7400000000600082015250565b6000612045601c836116c1565b91506120508261200f565b602082019050919050565b6000602082019050818103600083015261207481612038565b9050919050565b600080fd5b600080fd5b600080fd5b600080833560016020038436030381126120a7576120a661207b565b5b80840192508235915067ffffffffffffffff8211156120c9576120c8612080565b5b6020830192506001820236038313156120e5576120e4612085565b5b509250929050565b600080fd5b600080fd5b6000808585111561210b5761210a6120ed565b5b8386111561211c5761211b6120f2565b5b6001850283019150848603905094509492505050565b600082905092915050565b60007fffffffffffffffffffffffffffffffffffffffff00000000000000000000000082169050919050565b600082821b905092915050565b60006121828383612132565b8261218d813561213d565b925060148210156121cd576121c87fffffffffffffffffffffffffffffffffffffffff00000000000000000000000083601403600802612169565b831692505b505092915050565b60007fffffffffffff000000000000000000000000000000000000000000000000000082169050919050565b600061220d8383612132565b8261221881356121d5565b92506006821015612258576122537fffffffffffff000000000000000000000000000000000000000000000000000083600603600802612169565b831692505b505092915050565b6000806040838503121561227757612276611772565b5b600083013567ffffffffffffffff81111561229557612294611777565b5b6122a185828601611a8b565b925050602083013567ffffffffffffffff8111156122c2576122c1611777565b5b6122ce85828601611a8b565b9150509250929050565b6122e181611953565b82525050565b600065ffffffffffff82169050919050565b612302816122e7565b82525050565b600060a08201905061231d60008301886122d8565b61232a6020830187611c00565b61233760408301866122f9565b61234460608301856122f9565b61235160808301846122d8565b9695505050505050565b60008115159050919050565b6123708161235b565b811461237b57600080fd5b50565b60008151905061238d81612367565b92915050565b6000602082840312156123a9576123a8611772565b5b60006123b78482850161237e565b91505092915050565b600081905092915050565b50565b60006123db6000836123c0565b91506123e6826123cb565b600082019050919050565b60006123fc826123ce565b9150819050919050565b7f4e487b7100000000000000000000000000000000000000000000000000000000600052602160045260246000fd5b7f6163636f756e743a20616c726561647920696e697469616c697a656400000000600082015250565b600061246b601c836116c1565b915061247682612435565b602082019050919050565b6000602082019050818103600083015261249a8161245e565b9050919050565b600081519050919050565b600082825260208201905092915050565b60006124c8826124a1565b6124d281856124ac565b93506124e28185602086016116d2565b6124eb816116fc565b840191505092915050565b6000602082019050818103600083015261251081846124bd565b905092915050565b7f4e487b7100000000000000000000000000000000000000000000000000000000600052601160045260246000fd5b6000612552826117da565b915061255d836117da565b925082820390508181111561257557612574612518565b5b92915050565b600081905092915050565b7f19457468657265756d205369676e6564204d6573736167653a0a333200000000600082015250565b60006125bc601c8361257b565b91506125c782612586565b601c82019050919050565b6000819050919050565b6125ed6125e882611953565b6125d2565b82525050565b60006125fe826125af565b915061260a82846125dc565b60208201915081905092915050565b6000612624826117da565b91507fffffffffffffffffffffffffffffffffffffffffffffffffffffffffffffffff820361265657612655612518565b5b600182019050919050565b600061267060208401846117c5565b905092915050565b6126818161179c565b82525050565b600061269660208401846117fb565b905092915050565b6126a7816117da565b82525050565b600080fd5b600080fd5b600080fd5b600080833560016020038436030381126126d9576126d86126b7565b5b83810192508235915060208301925067ffffffffffffffff821115612701576127006126ad565b5b600182023603831315612717576127166126b2565b5b509250929050565b600082825260208201905092915050565b600061273c838561271f565b9350612749838584611a3a565b612752836116fc565b840190509392505050565b600061016083016127716000840184612661565b61277e6000860182612678565b5061278c6020840184612687565b612799602086018261269e565b506127a760408401846126bc565b85830360408701526127ba838284612730565b925050506127cb60608401846126bc565b85830360608701526127de838284612730565b925050506127ef6080840184612687565b6127fc608086018261269e565b5061280a60a0840184612687565b61281760a086018261269e565b5061282560c0840184612687565b61283260c086018261269e565b5061284060e0840184612687565b61284d60e086018261269e565b5061285c610100840184612687565b61286a61010086018261269e565b506128796101208401846126bc565b85830361012087015261288d838284612730565b9250505061289f6101408401846126bc565b8583036101408701526128b3838284612730565b925050508091505092915050565b600060608201905081810360008301526128db818661275d565b90506128ea60208301856122d8565b6128f76040830184611bd6565b949350505050565b7f45434453413a20696e76616c6964207369676e61747572650000000000000000600082015250565b60006129356018836116c1565b9150612940826128ff565b602082019050919050565b6000602082019050818103600083015261296481612928565b9050919050565b7f45434453413a20696e76616c6964207369676e6174757265206c656e67746800600082015250565b60006129a1601f836116c1565b91506129ac8261296b565b602082019050919050565b600060208201905081810360008301526129d081612994565b9050919050565b7f45434453413a20696e76616c6964207369676e6174757265202773272076616c60008201527f7565000000000000000000000000000000000000000000000000000000000000602082015250565b6000612a336022836116c1565b9150612a3e826129d7565b604082019050919050565b60006020820190508181036000830152612a6281612a26565b9050919050565b7f1901000000000000000000000000000000000000000000000000000000000000600082015250565b6000612a9f60028361257b565b9150612aaa82612a69565b600282019050919050565b6000612ac082612a92565b9150612acc82856125dc565b602082019150612adc82846125dc565b6020820191508190509392505050565b600060ff82169050919050565b612b0281612aec565b82525050565b6000608082019050612b1d60008301876122d8565b612b2a6020830186612af9565b612b3760408301856122d8565b612b4460608301846122d8565b95945050505050565b600060a082019050612b6260008301886122d8565b612b6f60208301876122d8565b612b7c60408301866122d8565b612b896060830185611bd6565b612b966080830184611c00565b969550505050505056fea26469706673582212204feb34893386a5b0085170bb47cfb273c91b3500836d40e354845eab12ad259864736f6c63430008120033",
  "devdoc": {
    "kind": "dev",
    "methods": {},
    "version": 1
  },
  "userdoc": {
    "kind": "user",
    "methods": {},
    "version": 1
  },
  "storageLayout": {
    "storage": [],
    "types": null
  }
}