{
  "address": "0xDDe5b9C2F6798f19cB21c0025535a80EC0DC18E2",
  "abi": [
    {
      "inputs": [],
      "stateMutability": "nonpayable",
      "type": "constructor"
    },
    {
      "anonymous": false,
      "inputs": [
        {
          "indexed": true,
          "internalType": "address",
          "name": "key",
          "type": "address"
        }
      ],
      "name": "SessionKeyRevoked",
      "type": "event"
    },
    {
      "inputs": [
        {
          "internalType": "bytes",
          "name": "_packed",
          "type": "bytes"
        }
      ],
      "name": "parseDataAndSignature",
      "outputs": [
        {
          "internalType": "bytes",
          "name": "data",
          "type": "bytes"
        },
        {
          "internalType": "bytes",
          "name": "signature",
          "type": "bytes"
        }
      ],
      "stateMutability": "pure",
      "type": "function"
    },
    {
      "inputs": [
        {
          "internalType": "address",
          "name": "_key",
          "type": "address"
        }
      ],
      "name": "revokeSessionKey",
      "outputs": [],
      "stateMutability": "nonpayable",
      "type": "function"
    },
    {
      "inputs": [
        {
          "internalType": "address",
          "name": "_key",
          "type": "address"
        }
      ],
      "name": "revoked",
      "outputs": [
        {
          "internalType": "bool",
          "name": "",
          "type": "bool"
        }
      ],
      "stateMutability": "view",
      "type": "function"
    },
    {
      "inputs": [
        {
          "internalType": "address",
          "name": "_key",
          "type": "address"
        }
      ],
      "name": "sessionNonce",
      "outputs": [
        {
          "internalType": "uint256",
          "name": "",
          "type": "uint256"
        }
      ],
      "stateMutability": "view",
      "type": "function"
    },
    {
      "inputs": [
        {
          "components": [
            {
              "internalType": "address",
              "name": "sender",
              "type": "address"
            },
            {
              "internalType": "uint256",
              "name": "nonce",
              "type": "uint256"
            },
            {
              "internalType": "bytes",
              "name": "initCode",
              "type": "bytes"
            },
            {
              "internalType": "bytes",
              "name": "callData",
              "type": "bytes"
            },
            {
              "internalType": "uint256",
              "name": "callGasLimit",
              "type": "uint256"
            },
            {
              "internalType": "uint256",
              "name": "verificationGasLimit",
              "type": "uint256"
            },
            {
              "internalType": "uint256",
              "name": "preVerificationGas",
              "type": "uint256"
            },
            {
              "internalType": "uint256",
              "name": "maxFeePerGas",
              "type": "uint256"
            },
            {
              "internalType": "uint256",
              "name": "maxPriorityFeePerGas",
              "type": "uint256"
            },
            {
              "internalType": "bytes",
              "name": "paymasterAndData",
              "type": "bytes"
            },
            {
              "internalType": "bytes",
              "name": "signature",
              "type": "bytes"
            }
          ],
          "internalType": "struct UserOperation",
          "name": "userOp",
          "type": "tuple"
        },
        {
          "internalType": "bytes32",
          "name": "userOpHash",
          "type": "bytes32"
        },
        {
          "internalType": "uint256",
          "name": "missingAccountFunds",
          "type": "uint256"
        }
      ],
      "name": "validatePluginData",
      "outputs": [
        {
          "internalType": "bool",
          "name": "validated",
          "type": "bool"
        }
      ],
      "stateMutability": "nonpayable",
      "type": "function"
    }
  ],
  "transactionHash": "0x4f458fb96c583443630c5f999c8101b44b451d9504c51c1fcaabd95a855dad63",
  "args": [],
  "numDeployments": 1,
  "solcInputHash": "02f95185e959f7a413463ec7d49142fc",
  "bytecode": "0x6101406040523480156200001257600080fd5b506040518060400160405280601781526020017f5a65726f44657653657373696f6e4b6579506c7567696e0000000000000000008152506040518060400160405280600581526020017f302e302e3100000000000000000000000000000000000000000000000000000081525060008280519060200120905060008280519060200120905060007f8b73c3c69bb8fe3d512ecc4cf759cc79239f7b179b0ffacaa9a75d522b39400f90508260e081815250508161010081815250504660a08181525050620000e88184846200013760201b60201c565b608081815250503073ffffffffffffffffffffffffffffffffffffffff1660c08173ffffffffffffffffffffffffffffffffffffffff168152505080610120818152505050505050506200024b565b6000838383463060405160200162000154959493929190620001ee565b6040516020818303038152906040528051906020012090509392505050565b6000819050919050565b620001888162000173565b82525050565b6000819050919050565b620001a3816200018e565b82525050565b600073ffffffffffffffffffffffffffffffffffffffff82169050919050565b6000620001d682620001a9565b9050919050565b620001e881620001c9565b82525050565b600060a0820190506200020560008301886200017d565b6200021460208301876200017d565b6200022360408301866200017d565b62000232606083018562000198565b620002416080830184620001dd565b9695505050505050565b60805160a05160c05160e0516101005161012051611ffb6200029b6000396000610d1f01526000610d6101526000610d4001526000610c7501526000610ccb01526000610cf40152611ffb6000f3fe608060405234801561001057600080fd5b50600436106100575760003560e01c80636d0ae0461461005c57806384f4fc6a1461008c578063970aa9ad146100a85780639e2045ce146100db578063fa01dc061461010b575b600080fd5b61007660048036038101906100719190611145565b61013b565b604051610083919061118b565b60405180910390f35b6100a660048036038101906100a19190611145565b61018d565b005b6100c260048036038101906100bd919061120b565b610234565b6040516100d294939291906112b6565b60405180910390f35b6100f560048036038101906100f09190611378565b610447565b6040516101029190611402565b60405180910390f35b61012560048036038101906101209190611145565b61049c565b6040516101329190611402565b60405180910390f35b60006101456104fb565b60010160008373ffffffffffffffffffffffffffffffffffffffff1673ffffffffffffffffffffffffffffffffffffffff168152602001908152602001600020549050919050565b60016101976104fb565b60000160008373ffffffffffffffffffffffffffffffffffffffff1673ffffffffffffffffffffffffffffffffffffffff16815260200190815260200160002060006101000a81548160ff0219169083151502179055508073ffffffffffffffffffffffffffffffffffffffff167f17c796fb82086b3c9effaec517342e5ca9ed8fd78c339137ec082f748ab60cbe60405160405180910390a250565b36600036600080868660009060209261024f93929190611427565b9061025a919061147a565b60001c90506000878783906020856102729190611508565b9261027f93929190611427565b9061028a919061147a565b60001c9050600088886020906040926102a593929190611427565b906102b0919061147a565b60001c90506000898983906020856102c89190611508565b926102d593929190611427565b906102e0919061147a565b60001c905089896020866102f49190611508565b90856020886103039190611508565b61030d9190611508565b9261031a93929190611427565b97509750898960208461032d9190611508565b908360208661033c9190611508565b6103469190611508565b9261035393929190611427565b955095508160208085610366919061156b565b610370919061159c565b60408661037d9190611508565b6103879190611508565b146103c7576040517f08c379a00000000000000000000000000000000000000000000000000000000081526004016103be9061163b565b60405180910390fd5b89899050602080836103d9919061156b565b6103e3919061159c565b6040846103f09190611508565b6103fa9190611508565b1461043a576040517f08c379a0000000000000000000000000000000000000000000000000000000008152600401610431906116a7565b60405180910390fd5b5050505092959194509250565b60003660003660006104798880610140019061046391906116d6565b606190809261047493929190611427565b610234565b935093509350935061048f88888686868661053a565b9450505050509392505050565b60006104a66104fb565b60000160008373ffffffffffffffffffffffffffffffffffffffff1673ffffffffffffffffffffffffffffffffffffffff16815260200190815260200160002060009054906101000a900460ff169050919050565b60008060017f6da8a1d7d4f224b5b2581a964c1890eb7e987638c691727e5a2a14ca24d03fd960001c61052e9190611739565b60001b90508091505090565b600080858560009060149261055193929190611427565b9061055c9190611799565b60601c90506105696104fb565b60000160008273ffffffffffffffffffffffffffffffffffffffff1673ffffffffffffffffffffffffffffffffffffffff16815260200190815260200160002060009054906101000a900460ff16156105f7576040517f08c379a00000000000000000000000000000000000000000000000000000000081526004016105ee90611844565b60405180910390fd5b87602001356106046104fb565b60010160008373ffffffffffffffffffffffffffffffffffffffff1673ffffffffffffffffffffffffffffffffffffffff1681526020019081526020016000205414610685576040517f08c379a000000000000000000000000000000000000000000000000000000000815260040161067c906118b0565b60405180910390fd5b6000868660149060349261069b93929190611427565b906106a6919061147a565b90506000801b81036106cf5784846021906062926106c693929190611427565b94509450610a35565b6000858560008181106106e5576106e46118d0565b5b9050013560f81c60f81b60f81c90506060600060148360ff160361081057878760019060159261071793929190611427565b60405161072592919061192f565b604051809103902090508787605690809261074293929190611427565b81019061074f9190611a86565b9150878760019060159261076593929190611427565b60405161077392919061192f565b60405180910390208c806060019061078b91906116d6565b60109060249261079d93929190611427565b6040516107ab92919061192f565b6040518091039020146107f3576040517f08c379a00000000000000000000000000000000000000000000000000000000081526004016107ea90611b1b565b60405180910390fd5b878760159060569261080793929190611427565b975097506109e7565b60188360ff16036109e657878760019060199261082f93929190611427565b60405161083d92919061192f565b604051809103902090508787605a90809261085a93929190611427565b8101906108679190611a86565b9150878760019060159261087d93929190611427565b60405161088b92919061192f565b60405180910390208c80606001906108a391906116d6565b6010906024926108b593929190611427565b6040516108c392919061192f565b60405180910390201461090b576040517f08c379a000000000000000000000000000000000000000000000000000000000815260040161090290611b1b565b60405180910390fd5b60008c806060019061091d91906116d6565b60449060649261092f93929190611427565b9061093a919061147a565b60001c90503660008e806060019061095291906116d6565b60248561095f9190611508565b9060288661096d9190611508565b9261097a93929190611427565b915091508a8a60159060199261099293929190611427565b6040516109a092919061192f565b604051809103902082826040516109b8929190611b3b565b6040518091039020146109ca57600080fd5b8a8a601990605a926109de93929190611427565b9a509a505050505b5b6109f2828583610bc3565b610a31576040517f08c379a0000000000000000000000000000000000000000000000000000000008152600401610a2890611ba0565b60405180910390fd5b5050505b6000610ae67ff0a98eef9608fd8bfe5833dfbc8b73ab86d0355db37a1f539565c5985ad1c2428a610a646104fb565b60010160008773ffffffffffffffffffffffffffffffffffffffff1673ffffffffffffffffffffffffffffffffffffffff1681526020019081526020016000206000815480929190610ab590611bc0565b91905055604051602001610acb93929190611c17565b60405160208183030381529060405280519060200120610bda565b90506000610b4187878080601f016020809104026020016040519081016040528093929190818152602001838380828437600081840152601f19601f8201169050808301925050505050505083610bf490919063ffffffff16565b90508373ffffffffffffffffffffffffffffffffffffffff168173ffffffffffffffffffffffffffffffffffffffff1614610bb1576040517f08c379a0000000000000000000000000000000000000000000000000000000008152600401610ba890611c9a565b60405180910390fd5b60019450505050509695505050505050565b600082610bd08584610c1b565b1490509392505050565b6000610bed610be7610c71565b83610d8b565b9050919050565b6000806000610c038585610dbe565b91509150610c1081610e0f565b819250505092915050565b60008082905060005b8451811015610c6657610c5182868381518110610c4457610c436118d0565b5b6020026020010151610f75565b91508080610c5e90611bc0565b915050610c24565b508091505092915050565b60007f000000000000000000000000000000000000000000000000000000000000000073ffffffffffffffffffffffffffffffffffffffff163073ffffffffffffffffffffffffffffffffffffffff16148015610ced57507f000000000000000000000000000000000000000000000000000000000000000046145b15610d1a577f00000000000000000000000000000000000000000000000000000000000000009050610d88565b610d857f00000000000000000000000000000000000000000000000000000000000000007f00000000000000000000000000000000000000000000000000000000000000007f0000000000000000000000000000000000000000000000000000000000000000610fa0565b90505b90565b60008282604051602001610da0929190611d32565b60405160208183030381529060405280519060200120905092915050565b6000806041835103610dff5760008060006020860151925060408601519150606086015160001a9050610df387828585610fda565b94509450505050610e08565b60006002915091505b9250929050565b60006004811115610e2357610e22611d69565b5b816004811115610e3657610e35611d69565b5b0315610f725760016004811115610e5057610e4f611d69565b5b816004811115610e6357610e62611d69565b5b03610ea3576040517f08c379a0000000000000000000000000000000000000000000000000000000008152600401610e9a90611de4565b60405180910390fd5b60026004811115610eb757610eb6611d69565b5b816004811115610eca57610ec9611d69565b5b03610f0a576040517f08c379a0000000000000000000000000000000000000000000000000000000008152600401610f0190611e50565b60405180910390fd5b60036004811115610f1e57610f1d611d69565b5b816004811115610f3157610f30611d69565b5b03610f71576040517f08c379a0000000000000000000000000000000000000000000000000000000008152600401610f6890611ee2565b60405180910390fd5b5b50565b6000818310610f8d57610f8882846110bc565b610f98565b610f9783836110bc565b5b905092915050565b60008383834630604051602001610fbb959493929190611f11565b6040516020818303038152906040528051906020012090509392505050565b6000807f7fffffffffffffffffffffffffffffff5d576e7357a4501ddfe92f46681b20a08360001c11156110155760006003915091506110b3565b60006001878787876040516000815260200160405260405161103a9493929190611f80565b6020604051602081039080840390855afa15801561105c573d6000803e3d6000fd5b505050602060405103519050600073ffffffffffffffffffffffffffffffffffffffff168173ffffffffffffffffffffffffffffffffffffffff16036110aa576000600192509250506110b3565b80600092509250505b94509492505050565b600082600052816020526040600020905092915050565b6000604051905090565b600080fd5b600080fd5b600073ffffffffffffffffffffffffffffffffffffffff82169050919050565b6000611112826110e7565b9050919050565b61112281611107565b811461112d57600080fd5b50565b60008135905061113f81611119565b92915050565b60006020828403121561115b5761115a6110dd565b5b600061116984828501611130565b91505092915050565b6000819050919050565b61118581611172565b82525050565b60006020820190506111a0600083018461117c565b92915050565b600080fd5b600080fd5b600080fd5b60008083601f8401126111cb576111ca6111a6565b5b8235905067ffffffffffffffff8111156111e8576111e76111ab565b5b602083019150836001820283011115611204576112036111b0565b5b9250929050565b60008060208385031215611222576112216110dd565b5b600083013567ffffffffffffffff8111156112405761123f6110e2565b5b61124c858286016111b5565b92509250509250929050565b600082825260208201905092915050565b82818337600083830152505050565b6000601f19601f8301169050919050565b60006112958385611258565b93506112a2838584611269565b6112ab83611278565b840190509392505050565b600060408201905081810360008301526112d1818688611289565b905081810360208301526112e6818486611289565b905095945050505050565b600080fd5b6000610160828403121561130d5761130c6112f1565b5b81905092915050565b6000819050919050565b61132981611316565b811461133457600080fd5b50565b60008135905061134681611320565b92915050565b61135581611172565b811461136057600080fd5b50565b6000813590506113728161134c565b92915050565b600080600060608486031215611391576113906110dd565b5b600084013567ffffffffffffffff8111156113af576113ae6110e2565b5b6113bb868287016112f6565b93505060206113cc86828701611337565b92505060406113dd86828701611363565b9150509250925092565b60008115159050919050565b6113fc816113e7565b82525050565b600060208201905061141760008301846113f3565b92915050565b600080fd5b600080fd5b6000808585111561143b5761143a61141d565b5b8386111561144c5761144b611422565b5b6001850283019150848603905094509492505050565b600082905092915050565b600082821b905092915050565b60006114868383611462565b826114918135611316565b925060208210156114d1576114cc7fffffffffffffffffffffffffffffffffffffffffffffffffffffffffffffffff8360200360080261146d565b831692505b505092915050565b7f4e487b7100000000000000000000000000000000000000000000000000000000600052601160045260246000fd5b600061151382611172565b915061151e83611172565b9250828201905080821115611536576115356114d9565b5b92915050565b7f4e487b7100000000000000000000000000000000000000000000000000000000600052601260045260246000fd5b600061157682611172565b915061158183611172565b9250826115915761159061153c565b5b828204905092915050565b60006115a782611172565b91506115b283611172565b92508282026115c081611172565b915082820484148315176115d7576115d66114d9565b5b5092915050565b600082825260208201905092915050565b7f696e76616c696420646174610000000000000000000000000000000000000000600082015250565b6000611625600c836115de565b9150611630826115ef565b602082019050919050565b6000602082019050818103600083015261165481611618565b9050919050565b7f696e76616c6964207369676e6174757265000000000000000000000000000000600082015250565b60006116916011836115de565b915061169c8261165b565b602082019050919050565b600060208201905081810360008301526116c081611684565b9050919050565b600080fd5b600080fd5b600080fd5b600080833560016020038436030381126116f3576116f26116c7565b5b80840192508235915067ffffffffffffffff821115611715576117146116cc565b5b602083019250600182023603831315611731576117306116d1565b5b509250929050565b600061174482611172565b915061174f83611172565b9250828203905081811115611767576117666114d9565b5b92915050565b60007fffffffffffffffffffffffffffffffffffffffff00000000000000000000000082169050919050565b60006117a58383611462565b826117b0813561176d565b925060148210156117f0576117eb7fffffffffffffffffffffffffffffffffffffffff0000000000000000000000008360140360080261146d565b831692505b505092915050565b7f73657373696f6e206b6579207265766f6b656400000000000000000000000000600082015250565b600061182e6013836115de565b9150611839826117f8565b602082019050919050565b6000602082019050818103600083015261185d81611821565b9050919050565b7f6e6f6e6365206d69736d61746368000000000000000000000000000000000000600082015250565b600061189a600e836115de565b91506118a582611864565b602082019050919050565b600060208201905081810360008301526118c98161188d565b9050919050565b7f4e487b7100000000000000000000000000000000000000000000000000000000600052603260045260246000fd5b600081905092915050565b600061191683856118ff565b9350611923838584611269565b82840190509392505050565b600061193c82848661190a565b91508190509392505050565b7f4e487b7100000000000000000000000000000000000000000000000000000000600052604160045260246000fd5b61198082611278565b810181811067ffffffffffffffff8211171561199f5761199e611948565b5b80604052505050565b60006119b26110d3565b90506119be8282611977565b919050565b600067ffffffffffffffff8211156119de576119dd611948565b5b602082029050602081019050919050565b6000611a026119fd846119c3565b6119a8565b90508083825260208201905060208402830185811115611a2557611a246111b0565b5b835b81811015611a4e5780611a3a8882611337565b845260208401935050602081019050611a27565b5050509392505050565b600082601f830112611a6d57611a6c6111a6565b5b8135611a7d8482602086016119ef565b91505092915050565b600060208284031215611a9c57611a9b6110dd565b5b600082013567ffffffffffffffff811115611aba57611ab96110e2565b5b611ac684828501611a58565b91505092915050565b7f696e76616c69642073657373696f6e206b657900000000000000000000000000600082015250565b6000611b056013836115de565b9150611b1082611acf565b602082019050919050565b60006020820190508181036000830152611b3481611af8565b9050919050565b6000611b4882848661190a565b91508190509392505050565b7f696e76616c696465206d65726b6c6520726f6f74000000000000000000000000600082015250565b6000611b8a6014836115de565b9150611b9582611b54565b602082019050919050565b60006020820190508181036000830152611bb981611b7d565b9050919050565b6000611bcb82611172565b91507fffffffffffffffffffffffffffffffffffffffffffffffffffffffffffffffff8203611bfd57611bfc6114d9565b5b600182019050919050565b611c1181611316565b82525050565b6000606082019050611c2c6000830186611c08565b611c396020830185611c08565b611c46604083018461117c565b949350505050565b7f6163636f756e743a20696e76616c6964207369676e6174757265000000000000600082015250565b6000611c84601a836115de565b9150611c8f82611c4e565b602082019050919050565b60006020820190508181036000830152611cb381611c77565b9050919050565b600081905092915050565b7f1901000000000000000000000000000000000000000000000000000000000000600082015250565b6000611cfb600283611cba565b9150611d0682611cc5565b600282019050919050565b6000819050919050565b611d2c611d2782611316565b611d11565b82525050565b6000611d3d82611cee565b9150611d498285611d1b565b602082019150611d598284611d1b565b6020820191508190509392505050565b7f4e487b7100000000000000000000000000000000000000000000000000000000600052602160045260246000fd5b7f45434453413a20696e76616c6964207369676e61747572650000000000000000600082015250565b6000611dce6018836115de565b9150611dd982611d98565b602082019050919050565b60006020820190508181036000830152611dfd81611dc1565b9050919050565b7f45434453413a20696e76616c6964207369676e6174757265206c656e67746800600082015250565b6000611e3a601f836115de565b9150611e4582611e04565b602082019050919050565b60006020820190508181036000830152611e6981611e2d565b9050919050565b7f45434453413a20696e76616c6964207369676e6174757265202773272076616c60008201527f7565000000000000000000000000000000000000000000000000000000000000602082015250565b6000611ecc6022836115de565b9150611ed782611e70565b604082019050919050565b60006020820190508181036000830152611efb81611ebf565b9050919050565b611f0b81611107565b82525050565b600060a082019050611f266000830188611c08565b611f336020830187611c08565b611f406040830186611c08565b611f4d606083018561117c565b611f5a6080830184611f02565b9695505050505050565b600060ff82169050919050565b611f7a81611f64565b82525050565b6000608082019050611f956000830187611c08565b611fa26020830186611f71565b611faf6040830185611c08565b611fbc6060830184611c08565b9594505050505056fea2646970667358221220c24c2c8a71bfb051406e854e284ef37120020f94e77468277989b1b436c341cf64736f6c63430008120033",
  "devdoc": {
    "kind": "dev",
    "methods": {},
    "version": 1
  },
  "userdoc": {
    "kind": "user",
    "methods": {},
    "version": 1
  },
  "storageLayout": {
    "storage": [],
    "types": null
  }
}